{
  "address": "0x8843B69C1348D470c1655C74E1a8d75e6Ed94201",
  "abi": [
    {
      "inputs": [],
      "name": "count",
      "outputs": [
        {
          "internalType": "uint256",
          "name": "",
          "type": "uint256"
        }
      ],
      "stateMutability": "view",
      "type": "function"
    },
    {
      "inputs": [],
      "name": "getCount",
      "outputs": [
        {
          "internalType": "uint256",
          "name": "",
          "type": "uint256"
        }
      ],
      "stateMutability": "view",
      "type": "function"
    },
    {
      "inputs": [],
      "name": "increment",
      "outputs": [],
      "stateMutability": "nonpayable",
      "type": "function"
    }
  ],
  "transactionHash": "0x2da5785c867600656f50ecf3a77d32d447a7ddb124939875c8cbe713a4fac4b0",
  "args": [],
  "numDeployments": 1,
  "solcInputHash": "9051000ee30609a4dffe72be1d2d0a3b",
  "bytecode": "0x6080806040523460145760fc908161001a8239f35b600080fdfe6080806040526004361015601257600080fd5b60003560e01c90816306661abd1460ad57508063a87d942c1460915763d09de08a14603c57600080fd5b34608c576000366003190112608c5760005460018101809111605d57600055005b7f4e487b7100000000000000000000000000000000000000000000000000000000600052601160045260246000fd5b600080fd5b34608c576000366003190112608c576020600054604051908152f35b34608c576000366003190112608c576020906000548152f3fea2646970667358221220aaa4a30a1e62ab83f1555fb7aa3612b5996f6de54e57e47329165008156b949364736f6c634300081c0033",
  "devdoc": {
    "kind": "dev",
    "methods": {},
    "version": 1
  },
  "userdoc": {
    "kind": "user",
    "methods": {},
    "version": 1
  },
  "storageLayout": {
    "storage": [
      {
        "astId": 3,
        "contract": "contracts/Counter.sol:Counter",
        "label": "count",
        "offset": 0,
        "slot": "0",
        "type": "t_uint256"
      }
    ],
    "types": {
      "t_uint256": {
        "encoding": "inplace",
        "label": "uint256",
        "numberOfBytes": "32"
      }
    }
  }
}